:10080000C2A0D2B2D2B3750B01D2AFD2A8D2AAD2B3
:1008100088D28A758901E50BB401040508800215A8
:1008200008E4F50EAF08120845050EE50EC3940561
:1008300040F2E508B4B405E4F50B80DAE50870D6BB
:05084000750B0180D1E1
:030003000208965A
:04089600750B0132AB
:0300130002089A46
:04089A00750B0032A8
:10084500EF75F006A4AEF0249AF50DEE3403F50C21
:10085500C37401950DF50A7448950CF509D2A0AF3E
:0F0865000DAE0C120874C2A0AF0AAE09020874DF
:10087400C3E49FFFE49EAD07F58C8D8AD28C308D46
:05088400FDC28CC28DD5
:01088900224C
:0300000002088A69
:0C088A00787FE4F6D8FD75810E020800AE
:00000001FF
